:020000040800F2
:10000000102E012491030008B9A000088190000877
:10001000B1A00008A114000891D000080000000061
:1000200000000000000000000000000059A90008C6
:10003000412400080000000091A10008E9B7000871
:10004000AB030008AB030008AB030008AB030008D8
:10005000AB030008AB030008AB030008AB030008C8
:10006000AB030008AB03000849240008691A000824
:10007000791A0008AB030008AB030008AB030008C3
:10008000AB030008AB030008AB030008AB03000898
:10009000AB030008AB030008AB030008AB03000888
:1000A000AB030008AB030008AB030008AB03000878
:1000B000AB030008AB030008AB030008AB03000868
:1000C000AB030008AB030008AB030008AB03000858
:1000D000AB03000881D00008AB030008AB030008A5
:1000E000AB030008AB03000800000000AB030008EE
:1000F000AB030008AB030008AB030008AB03000828
:10010000AB030008AB030008AB030008AB03000817
:10011000AB030008AB03000839BA000851BA000865
:10012000AB030008AB030008AB030008AB030008F7
:10013000AB030008AB030008AB030008AB030008E7
:1001400000000000000000000000000000000000AF
:10015000AB030008AB030008AB030008AB030008C7
:10016000AB030008AB030008AB030008AB030008B7
:10017000AB030008AB030008AB030008AB030008A7
:10018000AB030008AB030008AB030008AB03000897
:10019000AB030008AB030008AB030008AB03000887
:1001A000AB030008AB030008AB030008AB03000877
:1001B000AB030008AB030008AB030008AB03000867
:1001C000AB030008AB030008AB030008AB03000857
:1001D000AB030008AB030008AB030008AB03000847
:1001E000AB030008AB030008AB030008AB03000837
:1001F000AB030008AB030008AB030008AB03000827
:10020000AB030008AB030008AB030008AB03000816
:10021000AB030008AB030008AB030008AB03000806
:10022000AB030008AB030008AB03000800000000AC
:10023000AB030008AB03000800000000AB0300089C
:10024000AB030008AB030008AB030008AB030008D6
:10025000AB030008AB030008AB030008AB030008C6
:10026000AB030008AB030008AB030008AB030008B6
:10027000AB030008AB030008AB030008000000005C
:10028000AB030008AB030008AB030008000000004C
:1002900000000000AB03000800F002F800F067F86F
:1002A0000AA090E8000C82448344AAF10107DA45D1
:1002B00001D100F05CF8AFF2090EBAE80F0013F0BC
:1002C000010F18BFFB1A43F00103184794150100F2
:1002D000B4150100103A24BF78C878C1FAD8520783
:1002E00024BF30C830C144BF04680C6070470000B0
:1002F0000023002400250026103A28BF78C1FBD82F
:10030000520728BF30C148BF0B607047662911F003
:100310005C8003681B0A28BF41F08001642900F05B
:10032000C781752900F0C481E42900F0FD81F52919
:1003300000F0FA81732900F09685002070471FB500
:1003400011F036F89DE8030000F0F8F800F0C0FE68
:1003500004000020002111F015F8E06000F016F80C
:100360008DE80F0001F06EF81FBD10B510BD00F054
:100370008AFE1146FFF7E3FF10F046F900F060FF38
:1003800003B4FFF7F2FF03BC10F02AF900F0F7BD49
:100390000948804709480047FEE7FEE7FEE7FEE719
:1003A000FEE7FEE7FEE7FEE7FEE7FEE70448054955
:1003B000054A064B70470000D1B8000899020008B2
:1003C000102E0024102E012410AE002410AE0024A4
:1003D000704770B50D460646041F00F08FF802689E
:1003E000BDB1DEB105F10B0020F00701A9423CBF11
:1003F000002070BD23688B4238BF506813D35A1A4F
:10040000082A36D3601840F8042B216000F0F4F875
:100410002FE0304600F0F0F8002070BD2846BDE81F
:10042000704000F0BAB8002818BFA0423CBF024696
:100430004068F8D303EB040C84451CD1D0F800C00D
:100440006344994217D8A3EB010CBCF1080F0DD3FC
:10045000D0F804C06318C3F804C0D4F800C0006822
:100460006044401A18602160536002E023604068D5
:100470005060201D70BD284600F08FF8050008D0A0
:1004800031462068021F284600F0D8F9201D00F0F0
:10049000B3F8284670BD002800DA4042704710B516
:1004A000002000F07FF9FFF760FFBDE81040012059
:1004B00010F096B810B5431C02E010F8011B71B1A2
:1004C0008107FAD14FF0013202C88C1A8C4314EA2A
:1004D000C211F9D0C01A0A0603D0C01E10BDC01A3E
:1004E00010BD0A0401D0801E10BD0902FCD0401EC0
:1004F00010BD704770477047704700000048704754
:1005000028000024004870472000002470477047EE
:100510007047704738B504460A4600206946AFF375
:100520000080002808BF38BD02460099204600F030
:10053000C2F9012038BD012000F0B6BCF8B5AFF318
:100540000080054600200C46102000BF0646A81972
:10055000A0420DD9324669460020AFF30080070063
:1005600008BF00F0A1FC0098A04218BF0546C419BE
:10057000FFF7C4FF05600746F01D20F0070046198D
:10058000284600F091F9B44208BFF8BDA21B3146DD
:100590003868BDE8F84000F08EB970B50646FFF740
:1005A000ADFF056806F10B0020F00704B4429CBFC4
:1005B000002070BD2B466A68BAB11068A04210D303
:1005C00004F1080188423CBF5068586007D3516865
:1005D000101941601168091B016058601460101DFA
:1005E00070BD13465268002AE7D121462846FFF71E
:1005F00091FF0028DED170BD70B50446051FFFF7DE
:100600007DFF0068002C14BF446870BD002C18BF2B
:10061000AC423CBF20466468F8D301680A18AA427D
:1006200018BF456003D12A68054611440160286857
:100630004119A1421CBF6C6070BD6168696021688E
:100640000844286070BD10B5FFF75CFF006810BD5E
:1006500010B50446FFF756FF046010BD70B50C4698
:100660000546012A05D02878800600D5EA690023CE
:1006700002E0012305E05B1C934202D2E05C00280B
:10068000F9D1A869E618C01AA861286A1844286236
:100690002846AFF3008004E0D5E9012114F8010BEE
:1006A0009047B442F8D32846AFF3008070BD0000F5
:1006B0002DE9F0410646002410687529314616A53B
:1006C00010D0AFF30080002802DA404213A507E003
:1006D00031688A0701D512A502E0490704D511A5A2
:1006E000012401E0AFF3008000210A2206F1240773
:1006F00009E0B0FBF2FCB0FBF2F302FB1C0030306F
:1007000078541846491C0028F3D123462A4630461F
:10071000BDE8F04100F02EB9000000002D000000FF
:100720002B000000200000002DE9F0418046D21D82
:1007300022F007020025D2E90002F52915A614D0FF
:10074000011E72F1000106DA0023D0EB030063EB17
:10075000020211A608E0D8F800108B0701D50FA6F9
:1007600002E0490701D50EA601251146002408F133
:10077000240704E000F0B9F830323A55641C50EA1E
:100780000102F7D12B46324621464046BDE8F041F2
:1007900000F0F0B8000000002D0000002B00000069
:1007A0002000000010B500F067FBBDE8104000F02D
:1007B0005EBB032A40F2308010F0030C00F015807D
:1007C00011F8013BBCF1020F624498BF11F801CB54
:1007D00000F8013B38BF11F8013BA2F1040298BFB9
:1007E00000F801CB38BF00F8013B11F0030300F023
:1007F0002580083AC0F0088051F8043B083A51F8C7
:1008000004CBA0E80810F5E7121D5CBF51F8043BCB
:1008100040F8043BAFF30080D20724BF11F8013B3E
:1008200011F801CB48BF11F8012B24BF00F8013BA0
:1008300000F801CB48BF00F8012B704710B5203AF3
:10084000C0F00B80B1E81850A0E81850B1E818507B
:10085000A0E81850203ABFF4F5AF5FEA027C24BF4D
:10086000B1E81850A0E8185044BF18C918C0BDE836
:1008700010405FEA827C24BF51F8043B40F8043BFF
:1008800008BF7047D20728BF31F8023B48BF11F8B4
:10089000012B28BF20F8023B48BF00F8012B70470E
:1008A000004870472000002400210160C0E90110C9
:1008B000704710207047034640688C46002818BFD8
:1008C00088423CBF03464068F8D318681844884201
:1008D00007D00CF1030020F00700001D411A521A46
:1008E0000146081D0A60FFF787BE30B5B0F10A0265
:1008F00071F100034FEA900E4EEA817EB0EB0E00DC
:1009000061EB91014FEA101E4EEA017E10EB0E00E2
:1009100041EB11114FEA102E4EEA016E10EB0E0062
:1009200041EB11214FEA104E4EEA014E10EB0E0042
:1009300041EB1141401841F100014FEAD00040EA7B
:1009400041704FEAD1014FEA810444EA907410EB00
:10095000800544EB01046D1944EB0404521BA341D0
:100960004FF0000348BF0A3200D530BD401C41F1B2
:10097000000130BD2DE9F0470D46994692460446E8
:1009800000F124080168880604D5E06921F010010F
:10099000216000E00120A84201DD471B00E00027A4
:1009A000A1697A1902EB0900081AA0612078C00633
:1009B00002D42046AFF30080002608E0D4E90121EC
:1009C0001AF806009047206A401C761C20624E45AB
:1009D000F4DB2078C0060AD52046AFF3008006E09D
:1009E000D4E9012130209047206A401C2062381E43
:1009F000A7F10107F4DC07E0D4E9012118F80500AC
:100A00009047206A401C2062281EA5F10105F3DCF6
:100A10002046AFF300802078000602D50220BDE812
:100A2000F0870120FBE72DE9FF4F0C461E464FF0F3
:100A3000FF378BB0D2E90001DDF860800A908A466A
:100A4000C1F30A5505B93D46002108464FF00000A4
:100A5000BAF1000F00F4400005DA00EB80004FF41B
:100A6000400101EA50004FEA9059B9F1010F00DD51
:100A7000B9460A9850EA4A000ED044F61050A5F242
:100A8000FF3545432F14B8F1000F1ED07542291EC3
:100A90001EDDC9F100021CE0B8F1010F4FF00000AB
:100AA00001D0302103E0F24305E02154401CB04264
:100AB000FBDB30460022002121540B99C1F808804D
:100AC000C1E900200FB0BDE8F08FBD1B6D1CDEE753
:100AD0004A4600DA694206A800F040FB06AB93E8FC
:100AE000070003AB83E8070050460A9910F037F877
:100AF0008DE80700A0F500501F3800900398002DE6
:100B00000ADD42F21F014A460844002303A903906C
:100B1000684610F0A0FA09E0A0F500504A461F38D8
:100B2000002303A90390684610F0AAFA8DE8070095
:100B30000004000C03D04FF0FF30410800E01046E5
:100B4000B8F1000F03D00022009215461EE0751E7A
:100B500005D4FFF7CAFE303262556D1EF9D5B34693
:100B60000122084302D000227F1C04E020783028B4
:100B700001D100227F1E002A099784D01DE0112D8B
:100B800007DAFFF7B2FE303262556D1C50EA0102FF
:100B9000F5D1084302D00098C8B10EE00021681ECC
:100BA00005E0235C625C63542254401E491C814270
:100BB000F7DBAB46A81B401E0990002004F80B0091
:100BC0000B98099AC0F80880C0E9002B7AE7112633
:100BD0004FF0000857E72DE9F04F88460446D21D34
:100BE00022F0070191B0D1E90001CDE90A0110F02E
:100BF0007EFB02460B98C00F01D02D2007E0206835
:100C0000810701D52B2002E0202101EAC000032A40
:100C1000099001D0072A05DB03464146204600F033
:100C20005DFA0BE12078800601D5E06900E006203E
:100C3000B8F1650F814606D0B8F1660F18D0B8F14B
:100C4000670F70D131E00020B9F1110F009001DB86
:100C5000112301E009F101030AAA01A90CA8FFF779
:100C6000E2FEDDE90C70002609F10105834647E04C
:100C700001204B4600904FF000470AAA01A90CA89A
:100C8000FFF7D1FEDDE90DB00C995D46002610B9E5
:100C900009F101000D18B9EB050003D4C0F1FF36CE
:100CA00009F10105A5EB09002BE0B9F1010F01DA0B
:100CB0004FF001090020B9F1110F0090484601DD05
:100CC000112300E003460AAA01A90CA8FFF7ABFE16
:100CD000DDE90C704D4600268346207800070AD4D3
:100CE000AB4500DA5D4601A8012D04DD411911F87C
:100CF000011C302907D04F4502DA17F1040F04DA3E
:100D0000012082460FE06D1EEEE7002F02DCED1B96
:100D10003E4403E0781CA84200DD7D1CB81B00F1B6
:100D2000010A4FF000472078000703D4AA4501DBF1
:100D30004FF0FF3A0021B7F1004F0DF143088DF855
:100D4000431024D002202B23002F01DA7F422D23D1
:100D50000A21021EA0F1010000DC5FB197FBF1FC4B
:100D600097FBF1F201FB1C7C17460CF1300C08F8E4
:100D700001CDEEE7A8F1010003702188090501D536
:100D8000452100E06521A0F1010800F8011C099847
:100D90000FA9A1EB0807FF1D00B10120411901EBCC
:100DA000EA70A1693844081A401EA0612078C00684
:100DB00002D42046AFF30080099828B1D4E901217C
:100DC0009047206A401C20622078C00622D5204629
:100DD000AFF300801EE0002E04DBB34502DD01A866
:100DE000805D00E03020D4E901219047206A401C5A
:100DF0002062761CAAF101005FEA000A0AD100F025
:100E000067F9C0680168405CD4E901219047206A15
:100E1000401C2062281EA5F10105DCDC07E0D4E9B6
:100E2000012118F8010B9047206A401C2062381EEF
:100E3000A7F10107F3DC2046AFF30080032011B0D7
:100E400041E610B5436913B1AFF3008001E0FFF74D
:100E500005FC012010BD127800F124010A70002267
:100E60004A700122EDE711684FF0FF32E9E70028F0
:100E700001D00FF0B5BB704710B5002102A000F003
:100E8000E8F9012010BD0000534947414252543A4D
:100E90002041626E6F726D616C207465726D696E57
:100EA0006174696F6E00000010B500F0EBF9BDE8E9
:100EB0001040FFF7DCBF431A28BF9A427FF6BEAC52
:100EC0001044114410F0030F1EBF11F8013D521ED3
:100ED00000F8013D10F0030F7FF4F6AF103AC0F0B8
:100EE0000A8010B531E9185020E91850103ABFF4C3
:100EF000F9AFBDE81040530724BF31E9081020E9DD
:100F0000081044BF51F8043D40F8043D12F0030FAF
:100F100008BF7047D20728BF31F8023D48BF11F81B
:100F2000012C28BF20F8023D48BF00F8012C704773
:100F30004FF0000200B5134694469646203922BF72
:100F4000A0E80C50A0E80C50B1F12001BFF4F7AFBD
:100F5000090728BFA0E80C5048BF0CC05DF804EB9F
:100F6000890028BF40F8042B08BF704748BF20F80D
:100F7000022B11F0804F18BF00F8012B70472DE9AC
:100F8000FE4F00274FF48074BA4620468DF800705B
:100F9000FFF703FB5FEA000801D1FFF785FF214659
:100FA00040460FF015FB060009D04FF0010B4546F7
:100FB000C14616F8014B8FB15C2C16D01CE008F12D
:100FC00008004146C8F800000020C8F80400D8F81E
:100FD00000402070012003B0BDE8F08F222C01D02A
:100FE000272C0FD12746BA462CE03078222807D08C
:100FF0005C2805D0272803D0BC4203D1002721E07C
:10100000761C04464CB12FB9202C06D0A4F109005F
:10101000042802D905F8014BCBE74D4502D1BAF1BE
:10102000000F0FD052464946002005F8010B6846D4
:10103000AFF300809DF8000068B14D464FF0000A04
:101040000BF1010B002CB4D14FEA8B00FFF7A5FA8E
:10105000040002D004E0A946F0E70020FFF724FFD7
:1010600000264046C4F8008005E010F8011B11B9C5
:10107000761C44F82600A842F7D32146002044F805
:1010800026003046A7E77546FFF70AFCAE46050086
:101090006946534620F00700854618B020B5FFF793
:1010A00085F9BDE820404FF000064FF000074FF0F3
:1010B00000084FF0000BAC46ACE8C009ACE8C00932
:1010C000ACE8C009ACE8C00921F007018D467047C3
:1010D0000048704740000024704770472DE9F041F8
:1010E0001F46044603260168072A01F4006004DB5A
:1010F00008B116A505E016A503E008B115A500E0A6
:1011000015A521F010002060A069C01EA0610FB1DC
:10111000401EA0612046AFF300804FB1D4E9012109
:1011200038469047206A401C2062C01C206206E0BE
:10113000206AFAE7D4E9012115F8010B9047761EE1
:10114000F8D22046AFF30080BDE8F0814E414E005A
:101150006E616E00494E4600696E66002DE9F047EB
:10116000814616468AB0354878440DC88DE80D0092
:1011700032487844801C03AC0DC884E80D0041F669
:101180009B300844372190FBF1F290FBF1F5A5F17B
:10119000800501FB12041B3C02D56442012000E0E3
:1011A0000020DFF898A080460027FA44AAF1BE0A82
:1011B0000EE0E0070AD03246684607EB47010123FC
:1011C0000AEB81010FF05CFF8DE8070064107F1CC3
:1011D000002CEED1194F7F44AE3F19E0E80715D03F
:1011E00007EB04100DF1180A90E80E008AE80E00D3
:1011F000C068F04201D1981908903246012306A92F
:1012000003A80FF03DFF03AB83E807006D10641CDB
:10121000002DE3D14FF0010332466946B8F1000FCB
:1012200003A802D00FF017FF01E00FF029FFC9E972
:101230000001C9F808200AB0BDE8F087E00201000B
:1012400010B50446AFF300802046BDE81040FFF71C
:1012500097B870B505460C460A2000E06D1C0FF0EB
:10126000C3F935B128780028F8D102E0641C0FF0EA
:10127000BBF914B120780028F8D1BDE870400A20ED
:101280000FF0B2B910B5012805D0002103A0FFF777
:10129000E0FF012010BD09A1F8E7000053494752C3
:1012A000544D454D3A204F7574206F662068656136
:1012B00070206D656D6F7279000000003A204865FE
:1012C0006170206D656D6F727920636F72727570D9
:1012D000746564000000000030B44FF0013C50F829
:1012E000042BCCFA52F451F8043BD51A20D1FCB9A6
:1012F00050F8042BCCFA52F451F8043BD51A17D10C
:10130000B4B950F8042BCCFA52F451F8043BD51A76
:101310000ED16CB950F8042BCCFA52F451F8043BBE
:10132000D51A05D1002CDAD030BC4FF00000704740
:1013300029BAB1FA81F111F01801D1F120008440ED
:10134000F2D1CA40CB4012F0FF0213F0FF0330BCD1
:10135000D01A704753EA020C00F069802DE9F04B77
:101360004FF00006002B1FBFB3FA83F503FA05F414
:1013700024FA05F65E4012BF1643B2FA82F502FA6D
:1013800005F4C5F120051EBF22FA05FC44EA0C0451
:10139000203556EA044C4FEA144418BF641C4FF041
:1013A00000084FF00009904271EB030C39D300297B
:1013B00019BFB1FA81F701FA07F6B0FA80F700FA1F
:1013C00007F6C7F120071EBF20FA07FC46EA0C0605
:1013D0002037B6FBF4FCA7EB0507103F07F01F0B07
:1013E000CBF120062CFA06F60CFA0BFB44BFB346F1
:1013F0000026202FA4BF5E464FF0000B5BEA060CD0
:1014000008BF4FF0010B19EB0B0948EB0608ABFBCB
:10141000027C06FB02CC0BFB03CCC01B71EB0C0166
:10142000C1E70B46024641464846BDE8F08B13B57E
:101430004FF000004FF00001AFF30080BDE81C400A
:101440007047000070B5064C7C44064D7D4403E0B7
:10145000206820448047241DAC42F9D170BD0000B3
:10146000500401005004010081B08DF8030001B068
:10147000704700000000000080B5642040F2FD21AC
:101480004FF4FA7209F06CFA4FF6F0704FF4E7710E
:1014900040F6B83209F064FA80BD00000000000098
:1014A000FFE7FEE700000000F0B581B040F26410F5
:1014B000C2F20040007801282CD1FFE740F214006E
:1014C000C2F200400078012824D1FFE742F68C5098
:1014D000C2F20040007801281BD1FFE740F2F8007B
:1014E000C2F2004090ED000A40F2FC00C2F200405F
:1014F000D0ED000A40F20010C2F2004090ED001A58
:1015000008F012F842F68C50C2F20040002101703F
:10151000FFE714E040F2F800C2F2004090ED000A4C
:1015200040F2FC00C2F20040D0ED000A40F2001090
:10153000C2F2004090ED001A07F046FFFFE740F2CC
:101540006520C2F200400078012818D1FFE740F280
:101550006420C2F2004001780131CAB201700A2A47
:101560000CD1FFE740F26420C2F20040002101707C
:1015700040F26520C2F200400170FFE7FFE704205F
:1015800009F0AAF9404240F28C01C2F20041086021
:10159000086840F20411C2F200410A681044086071
:1015A000052009F099F9404240F29001C2F2004151
:1015B0000860086840F20811C2F200410A6810444D
:1015C0000860032009F088F940F29401C2F200415A
:1015D0000860086840F20C11C2F200410A68104429
:1015E0000860022009F078F940F29801C2F2004147
:1015F0000860086840F21011C2F200410A68104405
:10160000086040F26410C2F200400078002845D122
:10161000FFE740F28C00C2F20040006840F268111F
:10162000C2F20041096807F03FFD40F2E801C2F252
:101630000041086040F29000C2F20040006840F2B1
:101640006C11C2F20041096807F092FD40F2EC0112
:10165000C2F20041086040F29400C2F2004000680B
:1016600040F27011C2F20041096807F0E5FD40F256
:10167000F001C2F20041086040F29800C2F200405E
:10168000006840F27411C2F20041096807F038FEA8
:1016900040F2F401C2F20041086072E040F204102E
:1016A000C2F20040006840F26811C2F200410968CD
:1016B00008F072FD001240F2E804C2F2004420601B
:1016C00040F20810C2F20040006840F26C11C2F211
:1016D0000041096808F0D8FD001240F2EC05C2F2A2
:1016E0000045286040F20C10C2F20040006840F251
:1016F0007011C2F20041096808F03EFE001240F28B
:10170000F006C2F20046306040F21010C2F2004013
:10171000006840F27411C2F20041096808F0A4FEAA
:10172000001240F2F407C2F20047386000F044F8BB
:1017300040F28C00C2F2004000682168494207F084
:10174000B3FC206040F29000C2F2004000682968BB
:10175000494207F00DFD286040F29400C2F20040BB
:1017600000683168494207F067FD306040F2980038
:10177000C2F2004000683968494207F0C1FD386094
:10178000FFE70BF0A9FC40F2E800C2F2004000685D
:1017900040F2EC01C2F20041096840F2F002C2F2EC
:1017A0000042126840F2F403C2F200431B6809F0E1
:1017B00013FF01B0F0BD00002DE9F0412DED028BCB
:1017C00086B040F21400C2F200400078B8BBFFE7D8
:1017D00040F2F800C2F2004090ED000AB7EEC00AF5
:1017E00040F2D000C2F2004090ED001B30EE410B01
:1017F0008DED040B40F2FC00C2F2004090ED000AB7
:10180000B7EEC00A40F2D800C2F2004090ED001BD3
:1018100030EE410B8DED020B40F20010C2F20040A1
:1018200090ED000AB7EEC00A40F2E000C2F20040BC
:1018300090ED001B30EE410B8DED000B1EE040F2F1
:10184000F800C2F2004090ED000AB7EEC00A8DED3C
:10185000040B40F2FC00C2F2004090ED000AB7EE2B
:10186000C00A8DED020B40F20010C2F2004090ED74
:10187000000AB7EEC00A8DED000BFFE79DED040BEB
:10188000B5EE400BF1EE10FA10D1FFE79DED020B23
:10189000B5EE400BF1EE10FA08D1FFE79DED000B1D
:1018A000B5EE400BF1EE10FA15D0FFE79DED041BED
:1018B0009DED020B20EE000B01EE010B9DED001BD8
:1018C00001EE010B0FF02BFD40F28000C2F2004050
:1018D00080ED000BFFE79DED040BB5EE400BF1EE44
:1018E00010FA10D1FFE79DED020BB5EE400BF1EEC3
:1018F00010FA08D1FFE79DED000BB5EE400BF1EEBD
:1019000010FA0FD0FFE79DED040BB7EEC00B9DED75
:10191000021BF7EEC10B9DED001BB7EEC11B07F0DC
:10192000ABFDFFE740F20007C2F2004797ED008BE6
:1019300040F25410C2F2004000680EF0E9FE00EEE2
:10194000100AB8EE400B28EE000B40F28004C2F201
:10195000004494ED001B80EE010BBDEEC00B10EEB9
:10196000108A97ED008B40F25810C2F200400068D8
:101970000EF0CEFE00EE100AB8EE400B28EE000B83
:1019800094ED001B80EE010BBDEEC00B10EE105A63
:1019900097ED008B40F25C10C2F2004000680EF040
:1019A000B7FE00EE100AB8EE400B28EE000B94EDE7
:1019B000001B80EE010BBDEEC00B10EE106A97ED20
:1019C000008B40F26010C2F2004000680EF0A0FEF2
:1019D00000EE100AB8EE400B28EE000B94ED001B51
:1019E00080EE010BBDEEC00B10EE103A40462946CA
:1019F00032460BF001FC40F21400C2F200400078C5
:101A000058BBFFE740F2F800C2F2004090ED000A38
:101A1000B7EEC00A40F2D000C2F2004080ED000BE9
:101A200040F2FC00C2F2004090ED000AB7EEC00A9E
:101A300040F2D800C2F2004080ED000B40F20010EE
:101A4000C2F2004090ED000AB7EEC00A40F2E0009A
:101A5000C2F2004080ED000BFFE706B0BDEC028B48
:101A6000BDE8F0810000000080B540F28420C2F2A1
:101A7000004001F045F880BD80B540F20030C2F270
:101A8000004001F03DF880BD82B0019001980168EE
:101A900001201022C4F20202914200F09280FFE77E
:101AA0000198016801202822C4F20202914200F04C
:101AB0008880FFE70198016801204022C4F20202F9
:101AC00091427ED0FFE70198016801205822C4F2BC
:101AD0000202914275D0FFE701980168012070224F
:101AE000C4F2020291426CD0FFE701980168012024
:101AF0008822C4F20202914263D0FFE70198016894
:101B00000120A022C4F2020291425AD0FFE70198BC
:101B100001680120B822C4F20202914251D0FFE7CD
:101B200001980168012040F21042C4F20202914281
:101B300047D0FFE701980168012040F22842C4F233
:101B4000020291423DD0FFE701980168012040F276
:101B50004042C4F20202914233D0FFE7019801688B
:101B6000012040F25842C4F20202914229D0FFE71C
:101B700001980168012040F27042C4F202029142D1
:101B80001FD0FFE701980168012040F28842C4F2AB
:101B90000202914215D0FFE701980168012040F24E
:101BA000A042C4F2020291420BD0FFE70198006804
:101BB0004FF64831CBF6FD710844B0FA80F0400989
:101BC000FFE7C00740B3FFE70198007810384AF6F6
:101BD000AB21CAF6AA21A0FB0101080900900098D8
:101BE00000F0070041F20861C0F60101085C0199AC
:101BF00008660098042807D3FFE7019801680422CB
:101C000062F30901C16506E00198016840F2FF3204
:101C10009143C165FFE705E00198016821F0FF01EC
:101C2000C165FFE70198C06D02B070470000000079
:101C300083B0029002980068009002980168012029
:101C400045F20842C5F60202914247D0FFE70298EA
:101C50000168012045F21C42C5F6020291423DD0C6
:101C6000FFE702980168012045F23042C5F6020202
:101C7000914233D0FFE702980168012045F24442C7
:101C8000C5F60202914229D0FFE7029801680120BF
:101C900045F25842C5F6020291421FD0FFE7029872
:101CA0000168012045F26C42C5F60202914215D04E
:101CB000FFE702980168012045F28042C5F6020262
:101CC00091420BD0FFE7029800684AF66C31CAF2E5
:101CD000FD710844B0FA80F04009FFE7C00718B36F
:101CE000FFE70298007808384CF6CD41CCF6CC419D
:101CF000A0FB010108090190019845F60001C5F615
:101D0000020101EB800002994866029845F68001C5
:101D1000C5F602018166019800F01F00012101FA59
:101D200000F00299C86636E00298007810384AF64A
:101D3000AB21CAF6AA21A0FB010108090190009875
:101D400040F2B841C4F2020188420CD8FFE7009883
:101D500040F21041C4F20201884204D3FFE7019827
:101D600008300190FFE7019840F60001C4F202013B
:101D700001EB800002994866029840F68001C4F2A7
:101D800002018166019800F01F00012101FA00F0B4
:101D90000299C866FFE703B070470000000000002A
:101DA00082B001900198007900900098002800F01E
:101DB0008180FFE7009808287CD8FFE70198016838
:101DC000012045F20842C5F60202914247D0FFE7E2
:101DD00001980168012045F21C42C5F602029142B9
:101DE0003DD0FFE701980168012045F23042C5F679
:101DF0000202914233D0FFE701980168012045F2C9
:101E00004442C5F60202914229D0FFE701980168D9
:101E1000012045F25842C5F6020291421FD0FFE769
:101E200001980168012045F26C42C5F60202914218
:101E300015D0FFE701980168012045F28042C5F600
:101E4000020291420BD0FFE7019800684AF66C311C
:101E5000CAF2FD710844B0FA80F04009FFE7C007FC
:101E600080B1FFE7009845F6FC01C5F6020101EBE1
:101E7000800001990867019845F64011C5F60201F6
:101E800041670FE0009840F6FC01C4F2020101EB4B
:101E9000800001990867019840F64011C4F20201E0
:101EA0004167FFE700980138012101FA00F001992C
:101EB0008867FFE702B0704782B001900020009071
:101EC00001988069F8B9FFE70198806A032818D85B
:101ED000DFE800F0020C02160198C06AC001002879
:101EE00003D5FFE701200090FFE70BE00198C06AEF
:101EF000B0F1C07F03D1FFE701200090FFE701E0D0
:101F000000E0FFE73EE001988069B0F5005F21D175
:101F1000FFE70198806A03281AD8DFE800F002057D
:101F2000020F0120009014E00198C06AC00100284F
:101F300003D5FFE701200090FFE70AE00198C06A9F
:101F4000B0F1C07F03D1FFE701200090FFE700E080
:101F5000FFE716E00198806A032803D3FFE7032810
:101F600003D00CE0012000900AE00198C06AC00193
:101F7000002803D5FFE701200090FFE700E0FFE71E
:101F8000FFE7FFE7009802B0704700000000000084
:101F900086B005900491039202930598C06D01905C
:101FA0000598C06D00900598016801201022C4F2C8
:101FB0000202914200F0EB80FFE7059801680120E2
:101FC0002822C4F20202914200F0E180FFE7059866
:101FD000016801204022C4F20202914200F0D78041
:101FE000FFE70598016801205822C4F202029142DD
:101FF00000F0CD80FFE70598016801207022C4F24F
:102000000202914200F0C380FFE7059801680120B9
:102010008822C4F20202914200F0B980FFE70598DD
:1020200001680120A022C4F20202914200F0AF80B8
:10203000FFE7059801680120B822C4F2020291422C
:1020400000F0A580FFE705980168012040F21042EA
:10205000C4F20202914200F09A80FFE705980168FD
:10206000012040F22842C4F20202914200F08F8027
:10207000FFE705980168012040F24042C4F20202E5
:10208000914200F08480FFE705980168012040F24A
:102090005842C4F20202914279D0FFE705980168E4
:1020A000012040F27042C4F2020291426FD0FFE779
:1020B00005980168012040F28842C4F20202914270
:1020C00065D0FFE705980168012040F2A042C4F204
:1020D000020291425BD0FFE705980168012040F2BF
:1020E000B842C4F20202914251D0FFE7059801685C
:1020F000012045F20842C5F60202914247D0FFE7AF
:1021000005980168012045F21C42C5F60202914281
:102110003DD0FFE705980168012045F23042C5F641
:102120000202914233D0FFE705980168012045F291
:102130004442C5F60202914229D0FFE705980168A2
:10214000012045F25842C5F6020291421FD0FFE736
:1021500005980168012045F26C42C5F602029142E1
:1021600015D0FFE705980168012045F28042C5F6C9
:10217000020291420BD0FFE7059800684AF66C31E5
:10218000CAF2FD710844B0FA80F04009FFE7C007C9
:1021900070B1FFE70598816EC06E48600598006FCA
:1021A00028B1FFE70598416F806F4860FFE7FFE7C0
:1021B0000598016801201022C4F20202914200F049
:1021C0009280FFE70598016801202822C4F20202EC
:1021D000914200F08880FFE70598016801204022C5
:1021E000C4F2020291427ED0FFE705980168012007
:1021F0005822C4F20202914275D0FFE705980168A7
:1022000001207022C4F2020291426CD0FFE70598CF
:10221000016801208822C4F20202914263D0FFE7E4
:10222000059801680120A022C4F2020291425AD00E
:10223000FFE7059801680120B822C4F2020291422A
:1022400051D0FFE705980168012040F21042C4F226
:102250000202914247D0FFE705980168012040F251
:102260002842C4F2020291423DD0FFE7059801687E
:10227000012040F24042C4F20202914233D0FFE713
:1022800005980168012040F25842C4F202029142CE
:1022900029D0FFE705980168012040F27042C4F29E
:1022A000020291421FD0FFE705980168012040F229
:1022B0008842C4F20202914215D0FFE705980168F6
:1022C000012040F2A042C4F2020291420BD0FFE78B
:1022D000059800684FF64831CBF6FD710844B0FA16
:1022E00080F04009FFE7C00758B3FFE70598006E8C
:1022F00000F01F003F2101FA00F001998860059865
:102300000068016821F4802101600298059909683C
:10231000486005988068402809D1FFE7039805992F
:1023200009688860049805990968C86008E00498FD
:10233000059909688860039805990968C860FFE7EE
:102340007AE005980168012045F20842C5F60202CC
:10235000914247D0FFE705980168012045F21C42F1
:10236000C5F6020291423DD0FFE7059801680120C1
:1023700045F23042C5F60202914233D0FFE705989C
:102380000168012045F24442C5F60202914229D07B
:10239000FFE705980168012045F25842C5F60202A0
:1023A00091421FD0FFE705980168012045F26C4279
:1023B000C5F60202914215D0FFE705980168012099
:1023C00045F28042C5F6020291420BD0FFE7059824
:1023D00000684AF66C31CAF2FD710844B0FA80F028
:1023E0004009FFE7C00728B3FFE70598006E00F03B
:1023F0001F00012101FA00F0009948600298059938
:102400000968486005988068402809D1FFE703986B
:10241000059909688860049805990968C86008E00A
:102420000498059909688860039805990968C86047
:10243000FFE700E0FFE7FFE706B07047000000009D
:10244000704700000000000080B502F0D1FB80BDA5
:1024500010B582B001208DF807009DF80700C00775
:1024600078B1FFE740F20044C5F60204204601219E
:10247000012202F0C1FD20460221012202F0BCFD32
:102480000EE040F20044C5F602042046012100227D
:1024900002F0B2FD20460221002202F0ADFDFFE76E
:1024A00002B010BD0000000081B0EFF3108072B6E2
:1024B0000090FFE7FEE7000080B584B0029002982C
:1024C00018B9FFE70120039014E30298806B0228FB
:1024D00006D0FFE70298802181650120039009E37F
:1024E0000298016801201022C4F20202914200F019
:1024F0009280FFE70298016801202822C4F20202BC
:10250000914200F08880FFE7029801680120402294
:10251000C4F2020291427ED0FFE7029801680120D6
:102520005822C4F20202914275D0FFE70298016876
:1025300001207022C4F2020291426CD0FFE702989F
:10254000016801208822C4F20202914263D0FFE7B1
:10255000029801680120A022C4F2020291425AD0DE
:10256000FFE7029801680120B822C4F202029142FA
:1025700051D0FFE702980168012040F21042C4F2F6
:102580000202914247D0FFE702980168012040F221
:102590002842C4F2020291423DD0FFE7029801684E
:1025A000012040F24042C4F20202914233D0FFE7E0
:1025B00002980168012040F25842C4F2020291429E
:1025C00029D0FFE702980168012040F27042C4F26E
:1025D000020291421FD0FFE702980168012040F2F9
:1025E0008842C4F20202914215D0FFE702980168C6
:1025F000012040F2A042C4F2020291420BD0FFE758
:10260000029800684FF64831CBF6FD710844B0FAE5
:1026100080F04009FFE7C007002800F09C80FFE73A
:10262000029804218163029800681021C4F202011B
:10263000884200F08180FFE7029800682821C4F2F8
:102640000201884278D0FFE7029800684021C4F276
:102650000201884270D0FFE7029800685821C4F256
:102660000201884268D0FFE7029800687021C4F236
:102670000201884260D0FFE7029800688821C4F216
:102680000201884258D0FFE702980068A021C4F2F6
:102690000201884250D0FFE702980068B821C4F2D6
:1026A0000201884248D0FFE70298006840F21041DA
:1026B000C4F2020188423FD0FFE70298006840F26E
:1026C0002841C4F20201884236D0FFE70298006830
:1026D00040F24041C4F2020188422DD0FFE7029847
:1026E000006840F25841C4F20201884224D0FFE75A
:1026F0000298006840F27041C4F2020188421BD087
:10270000FFE70298006840F28841C4F20201884263
:1027100012D0FFE70298006840F2A041C4F2020123
:10272000884209D0FFE70298006840F2B841C4F23D
:102730000201884207D1FFE702980068016821F092
:102740000101016006E002980068016821F00101C2
:102750000160FFE7CAE102980068016821F00E01FC
:102760000160029800681021C4F20201884200F062
:102770008180FFE7029800682821C4F202018842A4
:1027800078D0FFE7029800684021C4F20201884235
:1027900070D0FFE7029800685821C4F20201884215
:1027A00068D0FFE7029800687021C4F202018842F5
:1027B00060D0FFE7029800688821C4F202018842D5
:1027C00058D0FFE702980068A021C4F202018842B5
:1027D00050D0FFE702980068B821C4F20201884295
:1027E00048D0FFE70298006840F21041C4F20201AD
:1027F00088423FD0FFE70298006840F22841C4F2C7
:102800000201884236D0FFE70298006840F240415A
:10281000C4F2020188422DD0FFE70298006840F21E
:102820005841C4F20201884224D0FFE702980068B0
:1028300040F27041C4F2020188421BD0FFE70298C7
:10284000006840F28841C4F20201884212D0FFE7DA
:102850000298006840F2A041C4F20201884209D007
:10286000FFE70298006840F2B841C4F202018842D2
:1028700007D1FFE702980068016821F001010160BB
:1028800006E002980068016821F001010160FFE79D
:102890000298016801201022C4F20202914200F065
:1028A000EB80FFE70298016801202822C4F20202AF
:1028B000914200F0E180FFE7029801680120402288
:1028C000C4F20202914200F0D780FFE7029801684B
:1028D00001205822C4F20202914200F0CD80FFE7AD
:1028E0000298016801207022C4F20202914200F0B5
:1028F000C380FFE70298016801208822C4F2020227
:10290000914200F0B980FFE7029801680120A022FF
:10291000C4F20202914200F0AF80FFE70298016822
:102920000120B822C4F20202914200F0A580FFE724
:1029300002980168012040F21042C4F20202914262
:1029400000F09A80FFE702980168012040F22842D7
:10295000C4F20202914200F08F80FFE70298016802
:10296000012040F24042C4F20202914200F0848011
:10297000FFE702980168012040F25842C4F20202C7
:10298000914279D0FFE702980168012040F270423D
:10299000C4F2020291426FD0FFE702980168012061
:1029A00040F28842C4F20202914265D0FFE70298E9
:1029B0000168012040F2A042C4F2020291425BD0C1
:1029C000FFE702980168012040F2B842C4F2020217
:1029D000914251D0FFE702980168012045F2084278
:1029E000C5F60202914247D0FFE702980168012034
:1029F00045F21C42C5F6020291423DD0FFE7029823
:102A00000168012045F23042C5F60202914233D0FE
:102A1000FFE702980168012045F24442C5F6020230
:102A2000914229D0FFE702980168012045F25842FF
:102A3000C5F6020291421FD0FFE70298016801200B
:102A400045F26C42C5F60202914215D0FFE70298AA
:102A50000168012045F28042C5F6020291420BD086
:102A6000FFE7029800684AF66C31CAF2FD7108442B
:102A7000B0FA80F04009FFE7C00730B3FFE70298E3
:102A8000406E016821F4807101600298C06D019070
:102A90000298006E00F01F00012101FA00F0019978
:102AA00048600298816EC06E48600298006F58B10D
:102AB000FFE70298006F016821F4807101600298BD
:102AC000416F806F4860FFE7FFE7FFE70298002152
:102AD0004163FFE70298012181630298406D20B1B4
:102AE000FFE70298416D8847FFE7FFE7FFE7002017
:102AF0000390FFE7039804B080BD000000000000D1
:102B000080B588B007900020039040F20800C2F220
:102B10000040006848F2B511C1F64E31A0FB01013A
:102B2000880A02900798C06D01900798C06D0090C8
:102B30000198006806900098006805900798016861
:102B400001201022C4F20202914200F09280FFE7BD
:102B50000798016801202822C4F20202914200F085
:102B60008880FFE70798016801204022C4F2020232
:102B700091427ED0FFE70798016801205822C4F2F5
:102B80000202914275D0FFE7079801680120702288
:102B9000C4F2020291426CD0FFE70798016801205D
:102BA0008822C4F20202914263D0FFE707980168CD
:102BB0000120A022C4F2020291425AD0FFE70798F6
:102BC00001680120B822C4F20202914251D0FFE70D
:102BD00007980168012040F21042C4F202029142BB
:102BE00047D0FFE707980168012040F22842C4F26D
:102BF000020291423DD0FFE707980168012040F2B0
:102C00004042C4F20202914233D0FFE707980168C4
:102C1000012040F25842C4F20202914229D0FFE75B
:102C200007980168012040F27042C4F2020291420A
:102C30001FD0FFE707980168012040F28842C4F2E4
:102C40000202914215D0FFE707980168012040F287
:102C5000A042C4F2020291420BD0FFE7079800683D
:102C60004FF64831CBF6FD710844B0FA80F04009C8
:102C7000FFE7C007002800F00785FFE706980799DF
:102C8000096E01F01F01082202FA01F1084200F06A
:102C9000AE80FFE7079800681021C4F20201884265
:102CA00000F08180FFE7079800682821C4F2020144
:102CB000884278D0FFE7079800684021C4F20201FB
:102CC000884270D0FFE7079800685821C4F20201DB
:102CD000884268D0FFE7079800687021C4F20201BB
:102CE000884260D0FFE7079800688821C4F202019B
:102CF000884258D0FFE707980068A021C4F202017B
:102D0000884250D0FFE707980068B821C4F202015A
:102D1000884248D0FFE70798006840F21041C4F2AB
:102D2000020188423FD0FFE70798006840F228413F
:102D3000C4F20201884236D0FFE70798006840F2EB
:102D40004041C4F2020188422DD0FFE70798006895
:102D500040F25841C4F20201884224D0FFE70798AC
:102D6000006840F27041C4F2020188421BD0FFE7C4
:102D70000798006840F28841C4F20201884212D0EC
:102D8000FFE70798006840F2A041C4F202018842C0
:102D900009D0FFE70798006840F2B841C4F2020189
:102DA000884206D1FFE707980068006800F0040039
:102DB00005E007980068006800F00800FFE7A8B188
:102DC000FFE707980068016821F004010160079897
:102DD000006E00F01F00082101FA00F001998860E0
:102DE0000798816D41F001018165FFE7FFE70698D3
:102DF0000799096E01F01F01012202FA01F1084250
:102E000000F0A780FFE7079800681021C4F20201D4
:102E1000884200F08180FFE7079800682821C4F20B
:102E20000201884278D0FFE7079800684021C4F289
:102E30000201884270D0FFE7079800685821C4F269
:102E40000201884268D0FFE7079800687021C4F249
:102E50000201884260D0FFE7079800688821C4F229
:102E60000201884258D0FFE707980068A021C4F209
:102E70000201884250D0FFE707980068B821C4F2E9
:102E80000201884248D0FFE70798006840F21041ED
:102E9000C4F2020188423FD0FFE70798006840F281
:102EA0002841C4F20201884236D0FFE70798006843
:102EB00040F24041C4F2020188422DD0FFE707985A
:102EC000006840F25841C4F20201884224D0FFE772
:102ED0000798006840F27041C4F2020188421BD09A
:102EE000FFE70798006840F28841C4F20201884277
:102EF00012D0FFE70798006840F2A041C4F2020137
:102F0000884209D0FFE70798006840F2B841C4F250
:102F10000201884206D1FFE707980068406900F087
:102F2000800004E00798006800680020FFE778B19F
:102F3000FFE70798006E00F01F00012101FA00F082
:102F4000019988600798816D41F002018165FFE772
:102F5000FFE706980799096E01F01F01042202FAA3
:102F600001F1084200F0A780FFE7079800681021F0
:102F7000C4F20201884200F08180FFE707980068F0
:102F80002821C4F20201884278D0FFE70798006840
:102F90004021C4F20201884270D0FFE70798006820
:102FA0005821C4F20201884268D0FFE70798006800
:102FB0007021C4F20201884260D0FFE707980068E0
:102FC0008821C4F20201884258D0FFE707980068C0
:102FD000A021C4F20201884250D0FFE707980068A0
:102FE000B821C4F20201884248D0FFE70798006880
:102FF00040F21041C4F2020188423FD0FFE7079837
:10300000006840F22841C4F20201884236D0FFE74E
:103010000798006840F24041C4F2020188422DD076
:10302000FFE70798006840F25841C4F20201884265
:1030300024D0FFE70798006840F27041C4F2020113
:1030400088421BD0FFE70798006840F28841C4F22D
:103050000201884212D0FFE70798006840F2A041C1
:10306000C4F20201884209D0FFE70798006840F2E5
:10307000B841C4F20201884206D1FFE70798006810
:10308000006800F0020004E0079800680068002073
:10309000FFE778B1FFE70798006E00F01F000421FA
:1030A00001FA00F0019988600798816D41F00401F0
:1030B0008165FFE7FFE706980799096E01F01F0198
:1030C000102202FA01F1084200F0DC80FFE70798C5
:1030D00000681021C4F20201884200F08180FFE7FD
:1030E000079800682821C4F20201884278D0FFE7DF
:1030F000079800684021C4F20201884270D0FFE7BF
:10310000079800685821C4F20201884268D0FFE79E
:10311000079800687021C4F20201884260D0FFE77E
:10312000079800688821C4F20201884258D0FFE75E
:1031300007980068A021C4F20201884250D0FFE73E
:1031400007980068B821C4F20201884248D0FFE71E
:103150000798006840F21041C4F2020188423FD053
:10316000FFE70798006840F22841C4F20201884254
:1031700036D0FFE70798006840F24041C4F20201F0
:1031800088422DD0FFE70798006840F25841C4F20A
:103190000201884224D0FFE70798006840F270419E
:1031A000C4F2020188421BD0FFE70798006840F292
:1031B0008841C4F20201884212D0FFE707980068F4
:1031C00040F2A041C4F20201884209D0FFE707980B
:1031D000006840F2B841C4F20201884206D1FFE71C
:1031E00007980068006800F0080005E0079800688C
:1031F000006800F00400FFE7002842D0FFE70798CE
:10320000006E00F01F00102101FA00F001998860A3
:10321000079800680068400300281AD5FFE7079860
:10322000006800680003002809D4FFE70798406C95
:1032300020B1FFE70798416C8847FFE708E007984F
:10324000C06C20B1FFE70798C16C8847FFE7FFE734
:1032500016E0079800680068C005002807D4FFE75B
:1032600007980068016821F008010160FFE70798EE
:10327000406C20B1FFE70798416C8847FFE7FFE704
:10328000FFE7FFE706980799096E01F01F0120226A
:1032900002FA01F1084200F02081FFE70798006878
:1032A0001021C4F20201884200F08180FFE70798F4
:1032B00000682821C4F20201884278D0FFE707980D
:1032C00000684021C4F20201884270D0FFE70798ED
:1032D00000685821C4F20201884268D0FFE70798CD
:1032E00000687021C4F20201884260D0FFE70798AD
:1032F00000688821C4F20201884258D0FFE707988D
:103300000068A021C4F20201884250D0FFE707986C
:103310000068B821C4F20201884248D0FFE707984C
:10332000006840F21041C4F2020188423FD0FFE73A
:103330000798006840F22841C4F20201884236D062
:10334000FFE70798006840F24041C4F2020188425A
:103350002DD0FFE70798006840F25841C4F20201FF
:10336000884224D0FFE70798006840F27041C4F219
:10337000020188421BD0FFE70798006840F28841AD
:10338000C4F20201884212D0FFE70798006840F2B9
:10339000A041C4F20201884209D0FFE70798006803
:1033A00040F2B841C4F20201884206D1FFE7079813
:1033B0000068006800F0100005E0079800680068E9
:1033C00000F00200FFE7002800F08680FFE7079882
:1033D000006E00F01F00202101FA00F001998860C2
:1033E0000798806B042836D1FFE7079800680168CA
:1033F00021F01601016007980068416921F0800101
:1034000041610798406C20B9FFE70798C06C38B15C
:10341000FFE707980068016821F008010160FFE7F5
:103420000798006E00F01F003F2101FA00F001999B
:103430008860FFE7079800214163FFE707980121B3
:1034400081630798406D20B1FFE70798416D884779
:10345000FFE700F00DBC07980068006840030028F3
:103460001AD5FFE70798006800680003002809D410
:10347000FFE70798806C20B1FFE70798816C8847C9
:10348000FFE708E00798006C20B1FFE70798016CA0
:103490008847FFE7FFE71EE0079800680068C0055F
:1034A00000280FD4FFE707980068016821F0100199
:1034B0000160FFE7079800214163FFE707980121BA
:1034C0008163FFE70798006C20B1FFE70798016C64
:1034D0008847FFE7FFE7FFE7FFE70798806D0028D1
:1034E00000F0D180FFE70798806DC007002800F04A
:1034F000C180FFE7079804218163079800681021C5
:10350000C4F20201884200F08180FFE7079800685A
:103510002821C4F20201884278D0FFE707980068AA
:103520004021C4F20201884270D0FFE7079800688A
:103530005821C4F20201884268D0FFE7079800686A
:103540007021C4F20201884260D0FFE7079800684A
:103550008821C4F20201884258D0FFE7079800682A
:10356000A021C4F20201884250D0FFE7079800680A
:10357000B821C4F20201884248D0FFE707980068EA
:1035800040F21041C4F2020188423FD0FFE70798A1
:10359000006840F22841C4F20201884236D0FFE7B9
:1035A0000798006840F24041C4F2020188422DD0E1
:1035B000FFE70798006840F25841C4F202018842D0
:1035C00024D0FFE70798006840F27041C4F202017E
:1035D00088421BD0FFE70798006840F28841C4F298
:1035E0000201884212D0FFE70798006840F2A0412C
:1035F000C4F20201884209D0FFE70798006840F250
:10360000B841C4F20201884207D1FFE70798006879
:10361000016821F00101016006E007980068016877
:1036200021F001010160FFE7FFE7039801300390FB
:103630000299884201D9FFE708E0FFE70798006890
:103640000068C0070028F0D1FFE7FFE7FFE7079811
:1036500000214163FFE7079800680068C00720B1B8
:10366000FFE707980321816303E007980121816345
:10367000FFE7FFE70798006D20B1FFE70798016DAE
:103680008847FFE7FFE7F3E207980168012045F26A
:103690000842C5F60202914247D0FFE70798016849
:1036A000012045F21C42C5F6020291423DD0FFE7DF
:1036B00007980168012045F23042C5F602029142A6
:1036C00033D0FFE707980168012045F24442C5F670
:1036D0000202914229D0FFE707980168012045F2D4
:1036E0005842C5F6020291421FD0FFE707980168D1
:1036F000012045F26C42C5F60202914215D0FFE767
:1037000007980168012045F28042C5F60202914205
:103710000BD0FFE7079800684AF66C31CAF2FD71DA
:103720000844B0FA80F04009FFE7C007002800F025
:103730009D82FFE707980068006804900598079944
:10374000096E01F01F01042202FA01F1084200F0A3
:10375000D880FFE79DF810004007002840F1D18095
:10376000FFE70798006E00F01F00042101FA00F047
:10377000009948609DF811000006002818D5FFE761
:103780009DF81200C00748B9FFE70798C06C20B148
:10379000FFE70798C16C8847FFE708E00798406C8F
:1037A00020B1FFE70798416C8847FFE7FFE7A7E0F4
:1037B0009DF810008006002800F19980FFE7079827
:1037C00000681021C4F20201884200F08180FFE706
:1037D000079800682821C4F20201884278D0FFE7E8
:1037E000079800684021C4F20201884270D0FFE7C8
:1037F000079800685821C4F20201884268D0FFE7A8
:10380000079800687021C4F20201884260D0FFE787
:10381000079800688821C4F20201884258D0FFE767
:1038200007980068A021C4F20201884250D0FFE747
:1038300007980068B821C4F20201884248D0FFE727
:103840000798006840F21041C4F2020188423FD05C
:10385000FFE70798006840F22841C4F2020188425D
:1038600036D0FFE70798006840F24041C4F20201F9
:1038700088422DD0FFE70798006840F25841C4F213
:103880000201884224D0FFE70798006840F27041A7
:10389000C4F2020188421BD0FFE70798006840F29B
:1038A0008841C4F20201884212D0FFE707980068FD
:1038B00040F2A041C4F20201884209D0FFE7079814
:1038C000006840F2B841C4F20201884207D1FFE724
:1038D00007980068016821F00801016006E0079878
:1038E0000068016821F004010160FFE7FFE7079825
:1038F000406C20B1FFE70798416C8847FFE7FFE77E
:10390000B3E105980799096E01F01F01022202FA3E
:1039100001F1084200F0E080FFE79DF81000800709
:10392000002840F1D980FFE70798006E00F01F00E3
:10393000022101FA00F0009948609DF8110000068C
:10394000002818D5FFE79DF81200C00748B9FFE727
:103950000798806C20B1FFE70798816C8847FFE7E4
:1039600008E00798006C20B1FFE70798016C8847D2
:10397000FFE7FFE7AFE09DF810008006002800F1A8
:10398000A180FFE7079800681021C4F20201884275
:1039900000F08180FFE7079800682821C4F2020147
:1039A000884278D0FFE7079800684021C4F20201FE
:1039B000884270D0FFE7079800685821C4F20201DE
:1039C000884268D0FFE7079800687021C4F20201BE
:1039D000884260D0FFE7079800688821C4F202019E
:1039E000884258D0FFE707980068A021C4F202017E
:1039F000884250D0FFE707980068B821C4F202015E
:103A0000884248D0FFE70798006840F21041C4F2AE
:103A1000020188423FD0FFE70798006840F2284142
:103A2000C4F20201884236D0FFE70798006840F2EE
:103A30004041C4F2020188422DD0FFE70798006898
:103A400040F25841C4F20201884224D0FFE70798AF
:103A5000006840F27041C4F2020188421BD0FFE7C7
:103A60000798006840F28841C4F20201884212D0EF
:103A7000FFE70798006840F2A041C4F202018842C3
:103A800009D0FFE70798006840F2B841C4F202018C
:103A9000884207D1FFE707980068016821F0140108
:103AA000016006E007980068016821F00A010160E2
:103AB000FFE7FFE7079800214163FFE7079801212F
:103AC0008163FFE70798006C20B1FFE70798016C5E
:103AD0008847FFE7FFE7C7E005980799096E01F0FF
:103AE0001F01082202FA01F1084200F0BB80FFE743
:103AF0009DF810000007002840F1B480FFE7079808
:103B000000681021C4F20201884200F08180FFE7C2
:103B1000079800682821C4F20201884278D0FFE7A4
:103B2000079800684021C4F20201884270D0FFE784
:103B3000079800685821C4F20201884268D0FFE764
:103B4000079800687021C4F20201884260D0FFE744
:103B5000079800688821C4F20201884258D0FFE724
:103B600007980068A021C4F20201884250D0FFE704
:103B700007980068B821C4F20201884248D0FFE7E4
:103B80000798006840F21041C4F2020188423FD019
:103B9000FFE70798006840F22841C4F2020188421A
:103BA00036D0FFE70798006840F24041C4F20201B6
:103BB00088422DD0FFE70798006840F25841C4F2D0
:103BC0000201884224D0FFE70798006840F2704164
:103BD000C4F2020188421BD0FFE70798006840F258
:103BE0008841C4F20201884212D0FFE707980068BA
:103BF00040F2A041C4F20201884209D0FFE70798D1
:103C0000006840F2B841C4F20201884207D1FFE7E0
:103C100007980068016821F01C01016006E0079820
:103C20000068016821F00E010160FFE70798006E4F
:103C300000F01F00012101FA00F0009A506007987F
:103C40008165FFE7079800214163FFE7079801219D
:103C500081630798006D20B1FFE70798016D8847E1
:103C6000FFE700E0FFE7FFE7FFE700E0FFE7FFE730
:103C700008B080BD0000000080B586B0049001F05F
:103C8000DBF90290049820B9FFE70120059000F0CD
:103C90004DBC0498016801201022C4F20202914236
:103CA00000F09280FFE70498016801202822C4F206
:103CB0000202914200F08880FFE704980168012029
:103CC0004022C4F2020291427ED0FFE704980168CC
:103CD00001205822C4F20202914275D0FFE70498F5
:103CE000016801207022C4F2020291426CD0FFE709
:103CF0000498016801208822C4F20202914263D034
:103D0000FFE7049801680120A022C4F20202914258
:103D10005AD0FFE7049801680120B822C4F20202D9
:103D2000914251D0FFE704980168012040F210420F
:103D3000C4F20202914247D0FFE7049801680120D3
:103D400040F22842C4F2020291423DD0FFE70498BB
:103D50000168012040F24042C4F20202914233D095
:103D6000FFE704980168012040F25842C4F20202C1
:103D7000914229D0FFE704980168012040F2704287
:103D8000C4F2020291421FD0FFE7049801680120AB
:103D900040F28842C4F20202914215D0FFE7049833
:103DA0000168012040F2A042C4F2020291420BD00D
:103DB000FFE7049800684FF64831CBF6FD710844E0
:103DC000B0FA80F04009FFE7C007002800F06C81DE
:103DD000FFE70498406A08B1FFE7FFE7FFE70498B0
:103DE00000214163FFE70498022181630498006881
:103DF0001021C4F20201884200F08180FFE704989C
:103E000000682821C4F20201884278D0FFE70498B4
:103E100000684021C4F20201884270D0FFE7049894
:103E200000685821C4F20201884268D0FFE7049874
:103E300000687021C4F20201884260D0FFE7049854
:103E400000688821C4F20201884258D0FFE7049834
:103E50000068A021C4F20201884250D0FFE7049814
:103E60000068B821C4F20201884248D0FFE70498F4
:103E7000006840F21041C4F2020188423FD0FFE7DF
:103E80000498006840F22841C4F20201884236D00A
:103E9000FFE70498006840F24041C4F20201884202
:103EA0002DD0FFE70498006840F25841C4F20201A7
:103EB000884224D0FFE70498006840F27041C4F2C1
:103EC000020188421BD0FFE70498006840F2884155
:103ED000C4F20201884212D0FFE70498006840F261
:103EE000A041C4F20201884209D0FFE704980068AB
:103EF00040F2B841C4F20201884207D1FFE70498BA
:103F00000068016821F00101016006E00498006882
:103F1000016821F001010160FFE7FFE704980068F4
:103F20000068C00788B1FFE701F086F80299401ADF
:103F3000062809D3FFE7049820218165049803210E
:103F4000816301200590F1E2E8E7049800680068C9
:103F50000390039848F23F01CFF6106108400390A8
:103F60000498D0F808C0C2680369416942EA0C02AB
:103F70001A43114382691143C2691143006A08431D
:103F80000399084303900498406A042808D1FFE786
:103F90000498C16A006B0843039908430390FFE744
:103FA00041F20000C5F6004000684FF6FF718843FB
:103FB000B0F1005F38D3FFE704984068292806D3A2
:103FC000FFE70498416801202F2924D3FFE70498D4
:103FD00040683F2806D3FFE7049841680120432941
:103FE00019D3FFE704984068472806D3FFE70498F1
:103FF0004168012049290ED3FFE704984168002059
:104000004F2907D3FFE7049841680020532938BFA0
:104010000120FFE7FFE7C00728B1FFE7039840F45E
:1040200080100390FFE7FFE7039804990968086090
:104030000498006840690390039820F007000390FB
:104040000498406A0399084303900498406A04283E
:1040500018D1FFE70498806A0399084303900498F5
:10406000C06A70B1FFE70498FDF726FF40B1FFE793
:10407000049840218165049801218163059155E2EE
:10408000FFE7FFE703980499096848610498FDF782
:10409000FBFC01900498006E00F01F003F2101FA24
:1040A00000F00199886010E104980168012045F250
:1040B0000842C5F60202914247D0FFE70498016822
:1040C000012045F21C42C5F6020291423DD0FFE7B5
:1040D00004980168012045F23042C5F6020291427F
:1040E00033D0FFE704980168012045F24442C5F649
:1040F0000202914229D0FFE704980168012045F2AD
:104100005842C5F6020291421FD0FFE704980168A9
:10411000012045F26C42C5F60202914215D0FFE73C
:1041200004980168012045F28042C5F602029142DE
:104130000BD0FFE7049800684AF66C31CAF2FD71B3
:104140000844B0FA80F04009FFE7C007002800F0FB
:10415000B280FFE704980168012045F20842C5F6E5
:104160000202914247D0FFE704980168012045F21E
:104170001C42C5F6020291423DD0FFE70498016857
:10418000012045F23042C5F60202914233D0FFE7EA
:1041900004980168012045F24442C5F602029142AA
:1041A00029D0FFE704980168012045F25842C5F67E
:1041B000020291421FD0FFE704980168012045F2F6
:1041C0006C42C5F60202914215D0FFE704980168DF
:1041D000012045F28042C5F6020291420BD0FFE772
:1041E000049800684AF66C31CAF2FD710844B0FACE
:1041F00080F04009FFE7C00708B1FFE7FFE7FFE7EE
:10420000049800214163FFE7049802218163049828
:1042100000680068039003986FF3101003900498EF
:104220008068402803D1FFE74FF0100C08E00498A5
:1042300080688038B0FA80F040094FEA803CFFE7A0
:104240000499CA680B694869D1F818E04CEAD202AF
:1042500042EAD30242EAD00040EADE00CA6940EAFC
:10426000D200096A40EA11100399084303900398A9
:10427000049909680860049801684AF6F832CAF29D
:10428000FD7211444CF6CD42CCF6CC42A1FB021299
:104290006FF0030101EA920101660498FDF7F4FB57
:1042A00000900498006E00F01F00012101FA00F058
:1042B0000099486008E00498402181650498032132
:1042C00081630120059031E1FFE704980168012036
:1042D0001022C4F20202914200F0EB80FFE7049842
:1042E000016801202822C4F20202914200F0E1801C
:1042F000FFE70498016801204022C4F202029142C3
:1043000000F0D780FFE70498016801205822C4F22A
:104310000202914200F0CD80FFE70498016801207D
:104320007022C4F20202914200F0C380FFE70498B9
:10433000016801208822C4F20202914200F0B98093
:10434000FFE7049801680120A022C4F20202914212
:1043500000F0AF80FFE7049801680120B822C4F2A2
:104360000202914200F0A580FFE704980168012055
:1043700040F21042C4F20202914200F09A80FFE73C
:1043800004980168012040F22842C4F202029142DE
:1043900000F08F80FFE704980168012040F240425E
:1043A000C4F20202914200F08480FFE704980168A1
:1043B000012040F25842C4F20202914279D0FFE754
:1043C00004980168012040F27042C4F20202914256
:1043D0006FD0FFE704980168012040F28842C4F2E0
:1043E0000202914265D0FFE704980168012040F283
:1043F000A042C4F2020291425BD0FFE70498016838
:10440000012040F2B842C4F20202914251D0FFE7CB
:1044100004980168012045F20842C5F60202914263
:1044200047D0FFE704980168012045F21C42C5F619
:10443000020291423DD0FFE704980168012045F255
:104440003042C5F60202914233D0FFE7049801687A
:10445000012045F24442C5F60202914229D0FFE70D
:1044600004980168012045F25842C5F602029142C3
:104470001FD0FFE704980168012045F26C42C5F6A1
:104480000202914215D0FFE704980168012045F22D
:104490008042C5F6020291420BD0FFE70498006803
:1044A0004AF66C31CAF2FD710844B0FA80F0400956
:1044B000FFE7C00790B3FFE70498FDF7B9FB049846
:1044C0008068802804D1FFE7049800214160FFE75D
:1044D00004980179406E01600498816EC06E486056
:1044E0000498406888B1FFE70498406808280CD811
:1044F000FFE70498FDF754FC0498006F0021016069
:104500000498416F806F486007E0049800210167BC
:104510000498416704988167FFE7FFE7049800214A
:1045200081650498012282630591FFE7059806B032
:1045300080BD00000000000080B586B004900391AB
:104540000292019300200090049818B9FFE701201F
:10455000059036E3FFE70498406B012803D1FFE79D
:10456000022005902DE3049801214163FFE7FFE756
:104570000498806B012840F01583FFE7049802211E
:104580008163049800218165049800681021C4F2B9
:104590000201884200F08180FFE70498006828212A
:1045A000C4F20201884278D0FFE7049800684021F5
:1045B000C4F20201884270D0FFE7049800685821D5
:1045C000C4F20201884268D0FFE7049800687021B5
:1045D000C4F20201884260D0FFE704980068882195
:1045E000C4F20201884258D0FFE704980068A02175
:1045F000C4F20201884250D0FFE704980068B82155
:10460000C4F20201884248D0FFE70498006840F2F3
:104610001041C4F2020188423FD0FFE704980068CD
:1046200040F22841C4F20201884236D0FFE70498E4
:10463000006840F24041C4F2020188422DD0FFE7F9
:104640000498006840F25841C4F20201884224D024
:10465000FFE70498006840F27041C4F2020188420A
:104660001BD0FFE70498006840F28841C4F20201C1
:10467000884212D0FFE70498006840F2A041C4F2DB
:104680000201884209D0FFE70498006840F2B8416F
:10469000C4F20201884207D1FFE70498006801686C
:1046A00021F00101016006E004980068016821F032
:1046B00001010160FFE704980399029A019BFDF74D
:1046C00067FC0498016801201022C4F202029142A2
:1046D00000F09280FFE70498016801202822C4F2CC
:1046E0000202914200F08880FFE7049801680120EF
:1046F0004022C4F2020291427ED0FFE70498016892
:1047000001205822C4F20202914275D0FFE70498BA
:10471000016801207022C4F2020291426CD0FFE7CE
:104720000498016801208822C4F20202914263D0F9
:10473000FFE7049801680120A022C4F2020291421E
:104740005AD0FFE7049801680120B822C4F202029F
:10475000914251D0FFE704980168012040F21042D5
:10476000C4F20202914247D0FFE704980168012099
:1047700040F22842C4F2020291423DD0FFE7049881
:104780000168012040F24042C4F20202914233D05B
:10479000FFE704980168012040F25842C4F2020287
:1047A000914229D0FFE704980168012040F270424D
:1047B000C4F2020291421FD0FFE704980168012071
:1047C00040F28842C4F20202914215D0FFE70498F9
:1047D0000168012040F2A042C4F2020291420BD0D3
:1047E000FFE7049800684FF64831CBF6FD710844A6
:1047F000B0FA80F04009FFE7C007A8B1FFE70498CE
:10480000006800680B2161F344000499096808609E
:104810000498406C38B1FFE704980068016841F0E3
:1048200008010160FFE714E00498006800680521B2
:1048300061F343000499096808600498406C38B13A
:10484000FFE704980068016841F004010160FFE798
:10485000FFE70498016801201022C4F2020291428D
:1048600000F0EB80FFE70498016801202822C4F2E1
:104870000202914200F0E180FFE704980168012004
:104880004022C4F20202914200F0D780FFE7049870
:10489000016801205822C4F20202914200F0CD804A
:1048A000FFE70498016801207022C4F202029142DD
:1048B00000F0C380FFE70498016801208822C4F259
:1048C0000202914200F0B980FFE7049801680120DC
:1048D000A022C4F20202914200F0AF80FFE70498E8
:1048E00001680120B822C4F20202914200F0A580C2
:1048F000FFE704980168012040F21042C4F202026E
:10490000914200F09A80FFE704980168012040F28C
:104910002842C4F20202914200F08F80FFE704981F
:104920000168012040F24042C4F20202914200F0CC
:104930008480FFE704980168012040F25842C4F2E5
:104940000202914279D0FFE704980168012040F209
:104950007042C4F2020291426FD0FFE704980168EE
:10496000012040F28842C4F20202914265D0FFE782
:1049700004980168012040F2A042C4F20202914270
:104980005BD0FFE704980168012040F2B842C4F20E
:104990000202914251D0FFE704980168012045F2DC
:1049A0000842C5F60202914247D0FFE70498016829
:1049B000012045F21C42C5F6020291423DD0FFE7BC
:1049C00004980168012045F23042C5F60202914286
:1049D00033D0FFE704980168012045F24442C5F650
:1049E0000202914229D0FFE704980168012045F2B4
:1049F0005842C5F6020291421FD0FFE704980168B1
:104A0000012045F26C42C5F60202914215D0FFE743
:104A100004980168012045F28042C5F602029142E5
:104A20000BD0FFE7049800684AF66C31CAF2FD71BA
:104A30000844B0FA80F04009FFE7C007D0B1FFE7B3
:104A40000498406E0068C003002807D5FFE704986B
:104A5000406E016841F480710160FFE70498006FC7
:104A600038B1FFE70498006F016841F4807101607C
:104A7000FFE7FFE7049800681021C4F202018842B2
:104A800000F08180FFE7049800682821C4F2020149
:104A9000884278D0FFE7049800684021C4F2020100
:104AA000884270D0FFE7049800685821C4F20201E0
:104AB000884268D0FFE7049800687021C4F20201C0
:104AC000884260D0FFE7049800688821C4F20201A0
:104AD000884258D0FFE704980068A021C4F2020180
:104AE000884250D0FFE704980068B821C4F2020160
:104AF000884248D0FFE70498006840F21041C4F2B1
:104B0000020188423FD0FFE70498006840F2284144
:104B1000C4F20201884236D0FFE70498006840F2F0
:104B20004041C4F2020188422DD0FFE7049800689A
:104B300040F25841C4F20201884224D0FFE70498B1
:104B4000006840F27041C4F2020188421BD0FFE7C6
:104B50000498006840F28841C4F20201884212D0F1
:104B6000FFE70498006840F2A041C4F202018842C5
:104B700009D0FFE70498006840F2B841C4F202018E
:104B8000884207D1FFE704980068016841F00101FD
:104B9000016006E004980068016841F001010160CD
:104BA000FFE70BE0FFE7049800214163FFE704986B
:104BB0004FF40061816501200090FFE700980590A7
:104BC000FFE7059806B080BD81B0ADF80200BDF8E2
:104BD0000200102807D1FFE740F24420C2F2004053
:104BE00001210170FFE701B07047000000000000E4
:104BF00080B582B01020ADF806008820C5F6000010
:104C00000068BDF8061008420BD0FFE7BDF80600AB
:104C10008821C5F600010860BDF80600FFF7D4FF43
:104C2000FFE702B080BD000087B00690059100202C
:104C300004908020C5F600000190FFE70598006809
:104C40000499C840002800F0BB81FFE70598006880
:104C50000499012202FA01F1084003900398002808
:104C600000F0AA81FFE70598406801280FD0FFE710
:104C70000598406802280AD0FFE705984068112887
:104C800005D0FFE70598406812282FD1FFE7069866
:104C90008068029004984000032101FA00F0029914
:104CA00021EA000002900598C068049949008840F4
:104CB0000299084302900298069988600698406815
:104CC00002900498012101FA00F0029921EA000003
:104CD000029005984068C0F300100499884002993A
:104CE00008430290029806994860FFE70698C0685A
:104CF000029004984000032101FA00F0029921EA91
:104D00000000029005988068049949008840029943
:104D10000843029002980699C860059840680228E6
:104D200005D0FFE705984068122826D1FFE70698CE
:104D300004996FF0030202EA51010844006A0290EC
:104D4000049800F0070080000F2101FA00F002999A
:104D500021EA0000029005980069049901F007011A
:104D60008900884002990843029002980699049BA2
:104D700002EA530211440862FFE7069800680290B5
:104D800004984000032101FA00F0029921EA000092
:104D900002900598406800F003000499490088409B
:104DA00002990843029002980699086005984068A5
:104DB000C000002840F1FF80FFE7FFE744F2F44025
:104DC000C5F60200016841F002010160006800F0D0
:104DD000020000900098FFE7049820F0030040F2E2
:104DE0000841C5F6000140580290049800F0030005
:104DF00080000F2101FA00F0029921EA00000290E0
:104E000006980021C5F60201884202D1FFE7002082
:104E100061E0069840F20041C5F60201884202D1E5
:104E2000FFE7012056E0069840F60001C5F60201B2
:104E3000884202D1FFE702204BE0069840F600418D
:104E4000C5F60201884202D1FFE7032040E0069840
:104E500041F20001C5F60201884202D1FFE70420B9
:104E600035E0069841F20041C5F60201884202D1C0
:104E7000FFE705202AE0069841F60001C5F6020189
:104E8000884202D1FFE706201FE0069841F6004164
:104E9000C5F60201884202D1FFE7072014E0069818
:104EA00042F20001C5F60201884202D1FFE7082064
:104EB00009E0069942F20042C5F602020A20914238
:104EC00008BF0920FFE7FFE7FFE7FFE7FFE7FFE78E
:104ED000FFE7FFE7FFE7049901F00301890088403D
:104EE0000299084302900298049921F0030140F2CC
:104EF0000842C5F6000288500198006802900398A5
:104F0000029921EA0000029005984068C003002839
:104F100005D5FFE70398029908430290FFE702983E
:104F2000019908600198406802900398029921EA6B
:104F300000000290059840688003002805D5FFE72F
:104F40000398029908430290FFE70298019948608C
:104F50004FF0B040006802900398029921EA0000E7
:104F6000029005984068C002002805D5FFE7039825
:104F7000029908430290FFE702984FF0B0410860A1
:104F80000420C5F60000006802900398029921EA07
:104F900000000290059840688002002805D5FFE7D0
:104FA0000398029908430290FFE702980421C5F68E
:104FB00000010860FFE7FFE70498013004903DE638
:104FC00007B070470000000083B00020C5F6020063
:104FD00002901020ADF8060002980069BDF8061096
:104FE000084203D0FFE70120009002E0002000907B
:104FF000FFE7009803B0704783B00290ADF8061049
:105000000092009828B1FFE7BDF806000299886178
:1050100005E0BDF80600000402998861FFE703B0CF
:10502000704700000000000041F20000C5F600409B
:105030000068000C7047000042F6D450C2F20040F5
:10504000006870470000000042F6D450C2F20040F1
:10505000016801310160704780B582B000F098F8B6
:1050600001F016FD44F21841C5F602010A68C2F3C8
:10507000032241F2F853C0F601039A5C02F01F02CA
:10508000D04000900098096801F00F01595C01F0D0
:105090001F01C84040F20C01C2F2004108600098B4
:1050A00040F20801C2F200410860002000F00CF854
:1050B00018B1FFE70120019004E000F035F800206E
:1050C0000190FFE702B080BD80B582B00090FFE79D
:1050D00040F20800C2F20040006844F6D351C1F229
:1050E0006201A0FB0101880902F08AFB18B1FFE709
:1050F0000120019015E000980F280CD8FFE70099D7
:105100004FF0FF3000F02CF8009840F21801C2F286
:105110000041086002E00120019002E000200190BF
:10512000FFE7019802B080BD81B0FFE744F2F44090
:10513000C5F60200016841F002010160006800F05C
:10514000020000900098FFE701B0704700000000E7
:1051500080B582B0019001980BF022F902B080BDB9
:1051600010B584B003900291002001900BF038F943
:105170000090039C00980299019A04F0D5FF014623
:1051800020460BF055F904B010BD000000000000EF
:1051900080B582B00320019001980BF069F902B04C
:1051A00080BD00000000000080B584B002200290A5
:1051B00044F60C00C5F60200006800F0040000216F
:1051C000B1EB900F11D1FFE744F60C00C5F60200D9
:1051D000006800F007000299884203D0FFE7012031
:1051E00003902BE00020039028E044F60C00C5F665
:1051F0000200016821F00701029A11430160FFF7E4
:105200001BFF0190FFE744F60400C5F602000068AA
:1052100000F400500021B1EB503F0CD1FFE7FFF745
:105220000BFF0199401AB0F57A7F03D9FFE70120FF
:10523000039003E0E7E700200390FFE704B080BDA0
:1052400080B501F0D1FB44F22041C5F602010968A6
:10525000C1F3021141F2F852C0F60102515C01F0B3
:105260001F01C84080BD000087B0069044F228406E
:10527000C5F60200016801F0030105910068C0F362
:105280000530049044F22C40C5F602000068C0F3DB
:1052900000100390039844F23C41C5F602010968EE
:1052A00089B2C908484300EE100AB8EE400A8DEDF5
:1052B000010A0498002800F01981FFE7059838B129
:1052C000FFE7012869D0FFE7022800F08A80ACE000
:1052D00044F20040C5F60200006800F02000002102
:1052E000B1EB501F34D0FFE744F20040C5F6020096
:1052F0000068C0F3C10049F20001C0F2D03121FAC8
:1053000000F002909DED020AB8EE400A9DED041AED
:10531000B8EE411A80EE010A44F23840C5F60200A8
:1053200000686FF35F2001EE100AB8EE411A9DEDA0
:10533000012A9FED743A82EE032A31EE021AB7EE8B
:10534000002A31EE021A20EE010A8DED000A23E058
:105350009DED040AB8EE400A9FED6C1A81EE000A3A
:1053600044F23840C5F6020000686FF35F2001EE9A
:10537000100AB8EE411A9DED012A9FED623A82EEC5
:10538000032A31EE021AB7EE002A31EE021A20EE9D
:10539000010A8DED000AFFE76BE09DED040AB8EE0F
:1053A000400A9FED591A81EE000A44F23840C5F6D2
:1053B000020000686FF35F2001EE100AB8EE411A98
:1053C0009DED012A9FED4F3A82EE032A31EE021A3B
:1053D000B7EE002A31EE021A20EE010A8DED000A26
:1053E00047E09DED040AB8EE400A9FED451A81EEB4
:1053F000000A44F23840C5F6020000686FF35F20EF
:1054000001EE100AB8EE411A9DED012A9FED3D3ADA
:1054100082EE032A31EE021AB7EE002A31EE021AAA
:1054200020EE010A8DED000A23E09DED040AB8EE9E
:10543000400A9FED351A81EE000A44F23840C5F665
:10544000020000686FF35F2001EE100AB8EE411A07
:105450009DED012A9FED2B3A82EE032A31EE021ACE
:10546000B7EE002A31EE021A20EE010A8DED000A95
:10547000FFE79DED000A44F23840C5F602000168DE
:1054800089B2490A01EE101AB8EE411AB7EE002AA5
:1054900031EE021A80EE010A0699BCEEC00A81EDD7
:1054A000000A9DED000A0168C1F3064101EE101AE1
:1054B000B8EE411A31EE021A80EE010A0699BCEEEE
:1054C000C00A81ED010A9DED000A0068C0F3066084
:1054D00001EE100AB8EE411A31EE021A80EE010A0E
:1054E0000698BCEEC00A80ED020A07E0069800218B
:1054F00001600698416006988160FFE707B0704739
:105500000024F44A000000460024744A0024744C2D
:1055100087B0069044F22840C5F60200016801F009
:10552000030105910068C0F30550049044F22C403B
:10553000C5F602000068C0F300200390039844F20F
:105540004441C5F60201096889B2C908484300EE22
:10555000100AB8EE400A8DED010A0498002800F008
:105560001981FFE7059838B1FFE7012869D0FFE707
:10557000022800F08A80ACE044F20040C5F6020048
:10558000006800F020000021B1EB501F34D0FFE78D
:1055900044F20040C5F602000068C0F3C10049F2C1
:1055A0000001C0F2D03121FA00F002909DED020A14
:1055B000B8EE400A9DED041AB8EE411A80EE010AD9
:1055C00044F24040C5F6020000686FF35F2001EE30
:1055D000100AB8EE411A9DED012A9FED743A82EE51
:1055E000032A31EE021AB7EE002A31EE021A20EE3B
:1055F000010A8DED000A23E09DED040AB8EE400A91
:105600009FED6C1A81EE000A44F24040C5F602009C
:1056100000686FF35F2001EE100AB8EE411A9DEDAD
:10562000012A9FED623A82EE032A31EE021AB7EEAA
:10563000002A31EE021A20EE010A8DED000AFFE782
:105640006BE09DED040AB8EE400A9FED591A81EE19
:10565000000A44F24040C5F6020000686FF35F2084
:1056600001EE100AB8EE411A9DED012A9FED4F3A66
:1056700082EE032A31EE021AB7EE002A31EE021A48
:1056800020EE010A8DED000A47E09DED040AB8EE18
:10569000400A9FED451A81EE000A44F24040C5F6EB
:1056A000020000686FF35F2001EE100AB8EE411AA5
:1056B0009DED012A9FED3D3A82EE032A31EE021A5A
:1056C000B7EE002A31EE021A20EE010A8DED000A33
:1056D00023E09DED040AB8EE400A9FED351A81EEF5
:1056E000000A44F24040C5F6020000686FF35F20F4
:1056F00001EE100AB8EE411A9DED012A9FED2B3AFA
:1057000082EE032A31EE021AB7EE002A31EE021AB7
:1057100020EE010A8DED000AFFE79DED000A44F23C
:105720004040C5F60200016889B2490A01EE101A2C
:10573000B8EE411AB7EE002A31EE021A80EE010AE5
:105740000699BCEEC00A81ED000A9DED000A0168D1
:10575000C1F3064101EE101AB8EE411A31EE021AF9
:1057600080EE010A0699BCEEC00A81ED010A9DEDAA
:10577000000A0068C0F3066001EE100AB8EE411A94
:1057800031EE021A80EE010A0698BCEEC00A80EDE6
:10579000020A07E006980021016006984160069819
:1057A0008160FFE707B070470024F44A000000461C
:1057B0000024744A0024744C80B586B00490002004
:1057C0000190009004980068000100283ED5FFE792
:1057D0000498406E60B1FFE7B0F5801F11D0FFE77D
:1057E000B0F5001F14D0FFE7B0F5401F17D017E049
:1057F00044F22C40C5F60200016841F4003101601A
:1058000011E004980430022104F0A6FE01900AE0A1
:1058100004982430022104F07FFF019003E002E0AD
:1058200001200190FFE7019860B9FFE744F2504082
:10583000C5F60200016821F44011049A526E11432A
:10584000016002E001980090FFE7FFE7049800681C
:10585000C005002838D5FFE70498406D04281DD8FE
:10586000DFE800F0030C131A1B0044F22C40C5F6CD
:105870000200016841F40031016012E00498043034
:10588000002104F069FE01900BE00498243000210F
:1058900004F042FF019004E003E002E001200190E7
:1058A000FFE7019860B9FFE744F25040C5F60200F7
:1058B000016821F00701049A526D1143016002E072
:1058C00001980090FFE7FFE7049800688005002832
:1058D00040D5FFE70498806D68B1FFE7402813D0FA
:1058E000FFE7802817D0FFE7C0281BD0FFE7B0F5FF
:1058F000807F18D018E044F22C40C5F60200016801
:1059000041F40031016012E004980430002104F0F9
:1059100023FE01900BE004982430002104F0FCFEEB
:10592000019004E003E002E001200190FFE701980C
:1059300060B9FFE744F25040C5F60200016821F467
:10594000E071049A926D1143016002E001980090A9
:10595000FFE7FFE7049800684005002845D5FFE70A
:105960000498D0F8A40080B1FFE7B0F5001F15D06F
:10597000FFE7B0F5800F18D0FFE7B0F5C00F1BD0E0
:10598000FFE7B0F5000F18D018E044F22C40C5F640
:105990000200016841F40031016012E00498043013
:1059A000002104F0D9FD01900BE00498243000217F
:1059B00004F0B2FE019004E003E002E00120019057
:1059C000FFE7019868B9FFE744F25840C5F60200C6
:1059D000016821F46001049AD2F8A4201143016007
:1059E00002E001980090FFE7FFE7049800680005D7
:1059F000002845D5FFE70498D0F8A80080B1FFE75C
:105A0000B0F1807F15D0FFE7B0F1007F18D0FFE73D
:105A1000B0F1407F1BD0FFE7B0F1806F18D018E0E5
:105A200044F22C40C5F60200016841F400310160E7
:105A300012E004980430002104F08EFD01900BE088
:105A400004982430002104F067FE019004E003E094
:105A500002E001200190FFE7019868B9FFE744F2F6
:105A60005840C5F60200016821F0E061049AD2F8BE
:105A7000A8201143016002E001980090FFE7FFE7D2
:105A8000049800688001002835D5FFE70498806CF1
:105A9000D0B1FFE7102806D0FFE720280CD0FFE7A1
:105AA000302810D011E044F22C40C5F60200016805
:105AB00041F4003101600BE004980430022104F04D
:105AC0004BFD019004E003E002E001200190FFE7BC
:105AD000019860B9FFE744F24C40C5F60200016846
